:020000040800F2
:1000000000000220051F00083D0800083F08000806
:1000100041080008430800084508000800000000E7
:100020000000000000000000000000004708000879
:1000300049080008000000004B0800084D080008AF
:10004000551F0008551F0008551F0008551F0008C0
:10005000551F0008551F0008551F0008551F0008B0
:10006000551F0008551F0008551F0008551F0008A0
:10007000551F0008551F0008551F0008551F000890
:10008000551F0008551F0008551F000800000000FC
:10009000000000000000000000000000551F0008E4
:1000A000551F0008551F0008551F0008551F000860
:1000B000551F0008551F0008551F0008551F000850
:1000C000551F0008551F0008551F0008551F000840
:1000D000551F0008551F0008551F000800000000AC
:1000E000551F0008551F0008551F0008000000009C
:1000F000000000000000000000000000551F000884
:1001000000000000551F0008551F0008551F00087B
:1001100000000000000000000000000000000000DF
:10012000551F0008551F0008551F0008551F0008DF
:10013000551F000800000000000000000000000043
:10014000000000000000000000000000551F000833
:10015000551F0008551F0008551F0008551F0008AF
:10016000551F0008551F0008000000000000000097
:10017000000000000000000000000000000000007F
:1001800000000000551F00080000000000000000F3
:08019000551F0008551F00086F
:1001A00010B5054C237833B9044B13B10448AFF3B1
:1001B00000800123237010BD7000002000000000AB
:1001C000C028000808B5034B1BB103490348AFF32F
:1001D000008008BD0000000074000020C028000856
:1001E000034613F8012B002AFBD1181A0138704777
:1001F00001F0FF01102A2BDB10F0070F08D010F8D8
:10020000013B013A8B422DD010F0070F42B3F6D1DB
:10021000F0B441EA012141EA014122F007047FF0F4
:1002200000070023F0E80256083C85EA010586EA4B
:10023000010685FA47F5A3FA87F586FA47F6A5FA87
:1002400087F68EB9EED1F0BC01F0FF0102F0070293
:1002500032B110F8013B013A83EA010313B1F8D13E
:100260000020704701387047002D06BF354603381F
:10027000073815F0010F07D1013015F4807F02BF58
:10028000013015F4C03F0130F0BC0138704700BFA9
:1002900053B94AB9002908BF00281CBF4FF0FF31ED
:1002A0004FF0FF3000F074B9ADF1080C6DE904CEE9
:1002B00000F006F8DDF804E0DDE9022304B0704741
:1002C0002DE9F047089D04468E46002B4DD18A4209
:1002D000944669D9B2FA82F252B101FA02F3C2F13C
:1002E000200120FA01F10CFA02FC41EA030E9440CD
:1002F0004FEA1C48210CBEFBF8F61FFA8CF708FBEE
:1003000016E341EA034306FB07F199420AD91CEBC5
:10031000030306F1FF3080F01F81994240F21C81F7
:10032000023E63445B1AA4B2B3FBF8F008FB10333F
:1003300044EA034400FB07F7A7420AD91CEB040474
:1003400000F1FF3380F00A81A74240F20781644444
:10035000023840EA0640E41B00261DB1D4400023C9
:10036000C5E900433146BDE8F0878B4209D9002D2D
:1003700000F0EF800026C5E9000130463146BDE8B7
:10038000F087B3FA83F6002E4AD18B4202D3824221
:1003900000F2F980841A61EB030301209E46002DD0
:1003A000E0D0C5E9004EDDE702B9FFDEB2FA82F225
:1003B000002A40F09280A1EB0C014FEA1C471FFA83
:1003C0008CFE0126200CB1FBF7F307FB131140EA6A
:1003D00001410EFB03F0884208D91CEB010103F137
:1003E000FF3802D2884200F2CB804346091AA4B2F9
:1003F000B1FBF7F007FB101144EA01440EFB00FECD
:10040000A64508D91CEB040400F1FF3102D2A64531
:1004100000F2BB800846A4EB0E0440EA03409CE7D0
:10042000C6F12007B34022FA07FC4CEA030C20FA7D
:1004300007F401FA06F31C43F9404FEA1C4900FA9D
:1004400006F3B1FBF9F8200C1FFA8CFE09FB18111A
:1004500040EA014108FB0EF0884202FA06F20BD98D
:100460001CEB010108F1FF3A80F08880884240F2DD
:100470008580A8F102086144091AA4B2B1FBF9F021
:1004800009FB101144EA014100FB0EFE8E4508D91C
:100490001CEB010100F1FF346CD28E456AD90238A1
:1004A000614440EA0840A0FB0294A1EB0E01A14286
:1004B000C846A64656D353D05DB1B3EB080261EBF4
:1004C0000E0101FA07F722FA06F3F1401F43C5E9CE
:1004D000007100263146BDE8F087C2F12003D84004
:1004E0000CFA02FC21FA03F3914001434FEA1C4746
:1004F0001FFA8CFEB3FBF7F007FB10360B0C43EA38
:10050000064300FB0EF69E4204FA02F408D91CEBE7
:10051000030300F1FF382FD29E422DD902386344E5
:100520009B1B89B2B3FBF7F607FB163341EA034185
:1005300006FB0EF38B4208D91CEB010106F1FF38D4
:1005400016D28B4214D9023E6144C91A46EA0046CB
:1005500038E72E46284605E70646E3E61846F8E65D
:100560004B45A9D2B9EB020864EB0C0E0138A3E7A6
:100570004646EAE7204694E74046D1E7D0467BE787
:10058000023B614432E7304609E76444023842E7FF
:10059000704700BF2DE9F0418AB00024059406940D
:1005A00007940894099401942F4B1A6B42F00402AB
:1005B0001A631A6B02F004020192019A02941A6BF8
:1005C00042F080021A631A6B02F080020292029AD1
:1005D00003941A6B42F001021A631A6B02F00102D3
:1005E0000392039A04941A6B42F002021A631B6B83
:1005F00003F002030493049BDFF878802246202155
:10060000404601F009FA194D22464FF48051284620
:1006100001F002FA4FF4005305934FF404130693CC
:10062000079405A9124801F017F92026059601271D
:1006300006970794089405A9404601F00DF94FF478
:100640008053059306970794089405A9284601F05E
:1006500003F905960694079405A9284601F0FCF8CD
:100660000AB0BDE8F08100BF00380240000402403B
:10067000000802400000024072B6FEE708B50A48D2
:100680000A4B03604FF4E133436000238360C3608F
:1006900003610C2242618361C36101F06EFB00B90A
:1006A00008BDFFF7E9FF00BFE8000020004400405C
:1006B00008B50D480D4B03604FF48273436000236F
:1006C0008360C360036143614FF400728261C36160
:1006D0000362436283620A23C36200F051FA00B9E5
:1006E00008BDFFF7C9FF00BF9000002000380040A0
:1006F00000B595B03022002108A801F057FC002376
:100700000393049305930693079301931E4A116C78
:1007100041F080511164126C02F080520192019AF2
:1007200002931A4A116841F440411160126802F4C0
:1007300040420292029A0221089101220B92102259
:100740000C920E910F9310924FF4A87311930423FF
:100750001293139308A800F043FD80B90F2303936D
:1007600002210491002305934FF4805206920793CF
:1007700003A800F09BFF20B915B05DF804FBFFF75C
:100780007BFFFFF779FF00BF003802400070004098
:1007900030B58FB001F0CAF9FFF7AAFFFFF7FAFEF4
:1007A000FFF76CFFFFF784FFA5238DF83730002398
:1007B000ADF834301C4B1B78002BFBD000221A4BB9
:1007C0001A701A4C4FF48051204601F025F9184D4B
:1007D0004FF0FF3301220DF13701284600F02FFAC8
:1007E0004FF0FF3302220DA9284600F034FC01220D
:1007F0004FF48051204601F00FF99DF834209DF808
:10080000353043EA02230B4A3221684601F0D6FB19
:100810006846FFF7E5FC4FF0FF3382B269460648B1
:1008200001F0DBFAC6E700BF8C00002000040240A4
:1008300090000020D8280008E8000020FEE7FEE72E
:10084000FEE7FEE7FEE770477047704708B501F026
:1008500087F908BD00B583B0002100910C4B5A6C9C
:1008600042F480425A645A6C02F480420092009A28
:1008700001911A6C42F080521A641B6C03F0805391
:100880000193019B072001F0CDF803B05DF804FB54
:1008900000380240F0B589B0002303930493059318
:1008A0000693079302681F4B9A4201D009B0F0BD2E
:1008B0000024009403F500331A6C42F480421A6459
:1008C0001A6C02F480420092009A01941A6B42F072
:1008D00004021A631A6B02F004020192019A029454
:1008E0001A6B42F002021A631B6B03F002030293BD
:1008F000029B0C23039302270497032606960525E3
:1009000007950DEB0301084800F0A6FF4FF4806344
:100910000393049705940696079503A9034800F0EE
:100920009BFFC3E70038004000080240000402407B
:1009300000B589B0002303930493059306930793AE
:100940000268154B9A4202D009B05DF804FB002101
:10095000019103F5FA331A6C42F400321A641A6CEE
:1009600002F400320192019A02911A6B42F00102E4
:100970001A631B6B03F001030293029B0C23039386
:1009800002230493032306930723079303A9034831
:1009900000F062FFD8E700BF0044004000000240C2
:1009A0002DE9F04782B00546884617461E4601F0FD
:1009B000E3F80A9B1B1A03EB060901F0DDF88246F7
:1009C0002B4B1B68C3F3CB3309FB03F301932B6859
:1009D0009C6838EA04030CBF4FF0010C4FF0000C88
:1009E000BC4540D0B6F1FF3FF1D001F0C5F8A0EB17
:1009F0000A0048450AD2B9F1000F07D0019A02B1A6
:100A00004A46019B013B01939146E0E72A685368FF
:100A100023F0E00353606B68B3F5827F0BD0AB6AC1
:100A2000B3F5005F14D0012385F85130002385F819
:100A30005030032018E0AB68B3F5004F02D0B3F597
:100A4000806FECD12A68136823F040031360E6E757
:100A50002A68136823F4005313602A68136843F468
:100A600000531360DFE7002002B0BDE8F08700BF4D
:100A70000800002070B584B004460D46164600926A
:100A80000B4601220221FFF78BFFD0B9174B1B68E1
:100A9000174AA2FB03235B0D4FF47A7202FB03F3A8
:100AA00003936368B3F5827F11D0039B3BB1039B33
:100AB000013B039323689B6813F0800FF5D104B0CA
:100AC00070BD636D43F0200363650320F7E7009674
:100AD0002B46002280212046FFF762FF0028EED03F
:100AE000636D43F0200363650320E8E708000020FE
:100AF000819F5E1610B582B004460B464168B1F581
:100B0000827F14D06168B1F5827F2AD1A168B1F5E6
:100B1000806F19D00092002280212046FFF740FF0D
:100B200030B3636D43F020036365032020E08168E8
:100B3000B1F5004F02D0B1F5806FE3D120680168B4
:100B400021F040010160DDE70092002201212046F2
:100B5000FFF726FF60B1636D43F020036365032058
:100B600006E00092002201212046FFF719FF08B994
:100B700002B010BD636D43F0200363650320F7E707
:100B800000285AD010B50446436A33B94368B3F518
:100B9000827F05D00023C36102E00023036143612B
:100BA0000023A36294F85130002B40D0022384F834
:100BB00051302268136823F040031360636803F424
:100BC0008273A26802F404421343E26802F40062F2
:100BD0001343226902F002021343626902F0010228
:100BE0001343A26902F400721343E26902F038026F
:100BF0001343226A02F080021343A26A02F40052F5
:100C0000216813430B60638B03F00403626A02F0F4
:100C10001002216813434B602268D36923F40063F8
:100C2000D36100206065012384F8513010BD84F841
:100C300050302046FFF72EFEB8E7012070472DE91F
:100C4000F04383B00446894690461D4600F094FF69
:100C500094F85160F6B2012E40F0CC800746B9F10D
:100C6000000F00F0C880B8F1000F00F0C48094F8C5
:100C70005030012B00F0C380012384F8503003234F
:100C800084F8513000236365C4F83090A4F83480B0
:100C9000A4F83680A363A387E38763642364A3680F
:100CA000B3F5004F1ED023681A6812F0400F03D12D
:100CB0001A6842F040021A60E368B3F5006F1CD076
:100CC000636813B1B8F1010F5FD1226B236812780A
:100CD0001A73236B01332363E38E9BB2013B9BB2F8
:100CE000E38652E02268136823F040031360226811
:100CF000136843F480431360D5E7636813B1B8F118
:100D0000010F15D1226B23681288DA60236B02333E
:100D10002363E38E9BB2013B9BB2E38608E000F0C5
:100D20002BFFC01BA84202D3B5F1FF3F15D1A5B1DF
:100D3000E38E9BB2002B42D023689A6812F0020F18
:100D4000EDD0226B1288DA60236B02332363E38ECB
:100D50009BB2013B9BB2E386EAE7012384F8513062
:100D6000002384F85030032645E0226B12781A7372
:100D7000236B01332363B4F836C01FFA8CFC0CF1EB
:100D8000FF3C1FFA8CFCA4F836C0E38E9BB2B3B1D3
:100D900023689A6812F0020FE7D100F0EDFEC01B45
:100DA000A84202D3B5F1FF3F01D1002DEDD10123BF
:100DB00084F85130002384F8503003261BE03A4673
:100DC00029462046FFF756FE08B120236365A36835
:100DD00033B901932368DA6801929B680193019B00
:100DE000012384F85130002384F85030636D13B927
:100DF000002600E00226304603B0BDE8F08302265C
:100E0000F9E72DE9F04383B00446884691461F4632
:100E10000A9D00F0B1FE064694F85130DBB26268DC
:100E2000012B0AD0B2F5827F40F00581A268002A2A
:100E300040F00581042B40F00481B8F1000F00F070
:100E40000281B9F1000F00F00081002F00F0FF8057
:100E500094F85030012B00F0FC80012384F85030CE
:100E600094F85130DBB2042B02D0052384F85130C2
:100E700000236365C4F83890E787A787C4F83080FB
:100E8000E786A7862364636423681A6812F0400F1C
:100E900003D11A6842F040021A60E368B3F5006FAC
:100EA00011D063680BB1012F0BD1226B236812782C
:100EB0001A73236B01332363E38E9BB2013B9BB216
:100EC000E386012771E063680BB1012F0BD1226B20
:100ED00023681288DA60236B02332363E38E9BB2AC
:100EE000013B9BB2E38601271BE023689A6812F05E
:100EF000010F0ED0E28F92B25AB1DA68A36B1A805A
:100F0000A36B0233A363E38F9BB2013B9BB2E387E6
:100F1000012700F031FE801BA84202D3B5F1FF3F4C
:100F20001ED1E38E9BB21BB9E38F9BB2002B62D024
:100F300023689A6812F0020FD7D0E28E92B2002A8C
:100F4000D3D0002FD1D0226B1288DA60236B02330A
:100F50002363E38E9BB2013B9BB2E3860027C4E789
:100F6000012384F85130002384F85030032063E0DB
:100F700023689A6812F0010F0ED0E28F92B25AB134
:100F8000DA68A36B1A70A36B0133A363E38F9BB280
:100F9000013B9BB2E387012700F0EEFD831BAB42D0
:100FA00002D3B5F1FF3F1ED1EDB1E38E9BB213B971
:100FB000E38F9BB2FBB123689A6812F0020FD7D07F
:100FC000E28E92B2002AD3D0002FD1D0226B1278B9
:100FD0001A73236B01332363E38E9BB2013B9BB2F5
:100FE000E3860027C4E7012384F85130002384F806
:100FF0005030032020E0324629462046FFF73AFDD4
:1010000090B9A36833B901932368DA6801929B68A9
:101010000193019B012384F85130002384F8503060
:10102000636D4BB1012007E020236365002384F842
:101030005030012000E0022003B0BDE8F083022020
:10104000FAE70220F8E70120F6E70120F4E70120A3
:10105000F2E70220F0E72DE9F04383B090F8516009
:10106000F6B2012E40F0B4800446894690461D46F3
:101070004368B3F5827F01D1836893B300F07CFDB0
:101080000746B9F1000F00F0A480B8F1000F00F09E
:10109000A08094F85030012B00F09F80012384F849
:1010A0005030042384F8513000236365C4F838902D
:1010B000A4F83C80A4F83E802363A386E3862364DF
:1010C0006364A368B3F5004F15D023681A6812F063
:1010D000400F03D11A6842F040021A60E368F3B18E
:1010E00043E0042380F85130009513460A46FFF789
:1010F00088FE06466DE02268136823F04003136003
:101100002268136823F480431360DEE700F034FDA7
:10111000C01BA84202D3B5F1FF3F15D1A5B1E38FA3
:101120009BB2002B42D023689A6812F0010FEDD0D9
:10113000A26B1B7B1370A36B0133A363E38F9BB282
:10114000013B9BB2E387EAE7012384F85130002397
:1011500084F8503003263CE000F00EFDC01BA8428E
:1011600002D3B5F1FF3F19D1C5B1E38F9BB2EBB10B
:1011700023689A6812F0010FEED0DA68A36B1A8028
:10118000A36B0233A363B4F83EC01FFA8CFC0CF1CE
:10119000FF3C1FFA8CFCA4F83EC0E6E7012384F86C
:1011A0005130002384F85030032612E03A46294695
:1011B0002046FFF79FFC08B120236365012384F8D4
:1011C0005130002384F85030636D13B9002600E0DD
:1011D0000226304603B0BDE8F0830226F9E700009E
:1011E000002800F0E08170B582B00446036813F077
:1011F000010F3BD09F4B9B6803F00C03042B2CD0BA
:101200009C4B9B6803F00C03082B21D06368B3F55B
:10121000803F4FD0B3F5A02F52D0964B1A6822F4DE
:1012200080321A601A6822F480221A606368002BE8
:1012300050D000F0A1FC05468E4B1B6813F4003F14
:1012400014D100F099FC401B6428F5D90320B1E1CA
:10125000884B5B6813F4800FD8D0864B1B6813F45F
:10126000003F03D06368002B00F09F81236813F0D8
:10127000020F54D07F4B9B6813F00C0F3ED07D4B78
:101280009B6803F00C03082B33D0E368002B68D075
:10129000794B01221A6000F06FFC0546754B1B6804
:1012A00013F0020F54D100F067FC401B0228F5D95F
:1012B00003207FE16F4A136843F480331360B5E77E
:1012C0006C4B1A6842F480221A601A6842F4803229
:1012D0001A60ABE700F050FC0546664B1B6813F440
:1012E000003FC3D000F048FC401B6428F5D9032020
:1012F00060E1604B5B6813F4800FC6D15D4B1B68E7
:1013000013F0020F03D0E368012B40F05081594ADB
:10131000136823F0F803216943EAC10313602368CB
:1013200013F0080F42D063696BB3534B0122C3F82B
:10133000802E00F021FC05464E4B5B6F13F0020F30
:1013400034D100F019FC401B0228F5D9032031E10B
:10135000484A136823F0F803216943EAC103136084
:10136000DDE7454B00221A6000F006FC0546414BC4
:101370001B6813F0020FD2D000F0FEFB401B0228C6
:10138000F5D9032016E13C4B0022C3F8802E00F073
:10139000F3FB0546374B5B6F13F0020F06D000F0EE
:1013A000EBFB401B0228F5D9032003E1236813F06F
:1013B000040F77D02F4B1B6C13F0805F33D10023C9
:1013C00001932C4B1A6C42F080521A641B6C03F090
:1013D00080530193019B0125284B1B6813F4807FE8
:1013E00023D0A368012B34D0052B38D0214B1A6FA2
:1013F00022F001021A671A6F22F004021A67A3682A
:10140000002B3DD000F0B8FB06461A4B1B6F13F0C3
:10141000020F46D100F0B0FB801B41F288339842A6
:10142000F3D90320C6E00025D6E7144A136843F435
:101430008073136000F0A0FB0646104B1B6813F48A
:10144000807FCED100F098FB801B0228F5D90320C5
:10145000B0E0084A136F43F001031367CFE7054B71
:101460001A6F42F004021A671A6F42F001021A67FB
:10147000C5E700BF0038024000004742007000404E
:1014800000F07AFB0646524B1B6F13F0020F08D098
:1014900000F072FB801B41F288339842F3D903209D
:1014A00088E0EDB9A369002B00F08380484A926878
:1014B00002F00C02082A51D0022B17D0454B002213
:1014C0001A6600F059FB0446414B1B6813F0007F7D
:1014D00042D000F051FB001B0228F5D9032069E03F
:1014E0003B4A136C23F080531364DBE7394B002233
:1014F0001A6600F041FB0546354B1B6813F0007F70
:1015000006D000F039FB401B0228F5D9032051E03A
:10151000E369226A1343626A43EA8213A26A5208A9
:10152000013A43EA0243E26A43EA0263284A53600B
:10153000284B01221A6600F01FFB0446244B1B684F
:1015400013F0007F06D100F017FB001B0228F5D92D
:1015500003202FE000202DE000202BE0012B2BD0DA
:101560001B4B5B6803F48001E269914226D103F0D2
:101570003F02216A8A4223D1616A47F6C0721A404B
:10158000B2EB811F1ED103F44031A26A5208013A26
:10159000B1EB024F18D103F07063E26AB3EB026F54
:1015A00014D1002006E001207047012002E0012054
:1015B00000E0002002B070BD0120FBE70120F9E748
:1015C0000120F7E70120F5E70120F3E70120F1E72B
:1015D000003802400000474208B5314B9B6803F0D9
:1015E0000C03042B57D0082B57D12D4B5A6802F00F
:1015F0003F025B6813F4800F2AD0294B5968C1F36E
:10160000881C4FEA4C11B1EB0C006EEB0E0E4FEA4A
:101610008E1343EA90638101091A63EB0E03DB002A
:1016200043EA5173C90011EB0C0C43F1000359025A
:1016300000234FEA4C2041EADC51FEF729FE184B0B
:101640005B68C3F3014301335B00B0FBF3F025E0BB
:10165000134B5968C1F3881C4FEA4C11B1EB0C00D5
:101660006EEB0E0E4FEA8E1343EA90638101091A66
:1016700063EB0E03DB0043EA5173C90011EB0C0C62
:1016800043F10003990200234FEA8C2041EA9C5168
:10169000FEF7FEFDD3E7034800E0034808BD00BFA6
:1016A0000038024000127A000024F400002800F004
:1016B0009B8070B50D4604464F4B1B6803F0070333
:1016C0008B4208D2CBB24C4A1370136803F0070365
:1016D0008B4240F08B80236813F0020F17D013F079
:1016E000040F04D0454A936843F4E05393602368A1
:1016F00013F0080F04D0414A936843F460439360A9
:101700003E4A936823F0F003A1680B43936023687B
:1017100013F0010F32D06368012B21D09A1E012AE9
:1017200025D9364A126812F0020F61D033498A680F
:1017300022F0030213438B6000F01EFA06462F4B83
:101740009B6803F00C036268B3EB820F16D000F0C5
:1017500013FA801B41F288339842F0D9032042E00B
:10176000264A126812F4003FE0D101203BE0234AF0
:10177000126812F0007FD9D1012034E01E4B1B68A3
:1017800003F00703AB4207D9EAB21B4B1A701B6880
:1017900003F00703AB422DD1236813F0040F06D0EA
:1017A000164A936823F4E053E1680B43936023687F
:1017B00013F0080F07D0114A936823F4604321699E
:1017C00043EAC1039360FFF707FF0C4B9B68C3F329
:1017D00003130B4AD35CD8400A4B18600A4B1868B5
:1017E00000F07EF9002070BD012070470120FAE76B
:1017F0000120F8E70120F6E7003C024000380240F3
:10180000EC2800080800002004000020014B1868A4
:10181000704700BF0800002008B5FFF7F7FF044B32
:101820009B68C3F38223034AD35CD84008BD00BF42
:1018300000380240FC28000808B5FFF7E7FF044B1A
:101840009B68C3F34233034AD35CD84008BD00BF52
:1018500000380240FC28000800230F2B00F2D28041
:1018600070B582B060E085685E000324B44025EA6C
:101870000405CC68B4402C438460456825EA020521
:101880004C68C4F300129A402A4342605AE0DC08D4
:10189000083450F8246003F0070295000F22AA4094
:1018A00026EA020E0A69AA4042EA0E0240F8242003
:1018B0005CE0042200E0002202FA0EF22A43023425
:1018C000514D45F82420514A94686FEA0C0224EAED
:1018D0000C054E6816F4801F01D04CEA04054B4CF1
:1018E000A560E46802EA04054E6816F4001F01D002
:1018F0004CEA0405454CE560646802EA04054E685C
:1019000016F4003F01D04CEA0405404C65602468A1
:1019100022404D6815F4803F01D04CEA04023B4C54
:10192000226001330F2B6BD801229A400C6804EA25
:10193000020C32EA0404F4D14C6804F00304013CC4
:10194000012C90D94A6802F00302032A09D0C46826
:101950005D000322AA4024EA02048A68AA402243C6
:10196000C2604A6802F00302022A90D004684FEA7B
:10197000430E032202FA0EF224EA02044A6802F03D
:10198000030202FA0EF2224302604A6812F4403F58
:10199000C7D0002201921E4A546C44F4804454641F
:1019A000526C02F480420192019A9C08A51C164ACE
:1019B00052F8255003F003024FEA820E0F2202FA7A
:1019C0000EF225EA0205134A90423FF474AF02F585
:1019D000806290420ED002F5806290420CD002F5F7
:1019E000806290420AD002F5806290423FF461AF7B
:1019F000072261E701225FE702225DE703225BE73E
:101A000002B070BD704700BF00380140003C01408B
:101A100000380240000002400AB1816170470904A9
:101A200081617047074AD36823F4E0631B041B0CF1
:101A3000000200F4E060034343F0BF6343F400336B
:101A4000D360704700ED00E000B5194BDB68C3F3CD
:101A50000223C3F1070CBCF1040F28BF4FF0040CA4
:101A600003F1040EBEF1060F18D9033B4FF0FF3E01
:101A70000EFA0CFC21EA0C0199400EFA03F322EA5B
:101A80000303194300280BDB0901C9B200F16040D0
:101A900000F5614080F800135DF804FB0023E5E7E2
:101AA00000F00F000901C9B2024B1954F4E700BF5E
:101AB00000ED00E014ED00E00138B0F1807F0BD2C2
:101AC0004FF0E0235861054AF02182F823100020EE
:101AD000986107221A6170470120704700ED00E00D
:101AE00010B504460E4B18784FF47A73B3FBF0F33D
:101AF0000C4A1068B0FBF3F0FFF7DEFF68B90F2C5B
:101B000001D901200AE0002221464FF0FF30FFF703
:101B10009BFF054B1C60002000E0012010BD00BFB2
:101B200000000020080000200400002008B50B4B36
:101B30001A6842F400721A601A6842F480621A60ED
:101B40001A6842F480721A600320FFF76BFF0020CE
:101B5000FFF7C6FFFEF77EFE002008BD003C0240F6
:101B6000034A1168034B1B780B441360704700BF96
:101B70003001002000000020014B1868704700BFB2
:101B800030010020026802F10C0353E8003F23F407
:101B900090730C3242E800310029F3D1026802F15F
:101BA000140353E8003F23F00103143242E80031EC
:101BB0000029F3D1036B012B05D0202380F842309C
:101BC000002303637047026802F10C0353E8003FEF
:101BD00023F010030C3242E800310029F3D1ECE786
:101BE00038B504460268136923F44053C1680B43B7
:101BF000136183680269134342691343C2691A433C
:101C00000168CB6823F4164323F00C031343CB6025
:101C10000268536923F4407381690B43536103687D
:101C2000314A934206D002F58062934202D0FFF718
:101C3000F3FD01E0FFF700FEE369B3F5004F29D0A3
:101C40000021031849411B1841F10001C90041EA74
:101C50005371DB00181863684FEA83024FEA9373ED
:101C600041F10001FEF714FB204DA5FB00325109A4
:101C7000642303FB11031B013233A5FB03235B0920
:101C800003F0F00202EB011203F00F03216813448A
:101C90008B6038BD0023021843EB0301121841F199
:101CA0000001C90041EA5271D200101841F100014F
:101CB000626892185B41FEF7EBFA0C4DA5FB00320F
:101CC0005109642303FB1103DB003233A5FB03231B
:101CD0005B095A0002F4F87202EB011203F00703E9
:101CE000216813448B60D4E7001001401F85EB513D
:101CF0002DE9F04383B005460E4617469946DDF8B8
:101D000028802C68246836EA04030CBF4FF0010CCD
:101D10004FF0000CBC4528D1B8F1FF3FF1D0FFF7E0
:101D20002BFFA0EB0900404523D8B8F1000F22D0CB
:101D30002B68DA6812F0040FE3D0802EE1D0402E39
:101D4000DFD01A6812F0080FDBD0002401941A6863
:101D500001925B680193019B2846FFF713FF08235C
:101D60006B6485F84040012000E0002003B0BDE82E
:101D7000F0830320FAE70320F8E760B310B50446C8
:101D800090F8413013B3242384F841302268D3689B
:101D900023F40053D3602046FFF722FF2268136923
:101DA00023F4904313612268536923F02A0353619B
:101DB0002268D36843F40053D3600020606420237A
:101DC00084F8413084F84230606310BD80F84030C0
:101DD000FEF7AEFDD7E7012070472DE9F04182B054
:101DE0001E4690F84130DBB2202B56D104460D46FA
:101DF0009046002955D00AB901204FE000234364E2
:101E0000212380F84130FFF7B7FE0746A4F824806D
:101E1000A4F82680A368B3F5805F02D04FF00008D5
:101E200014E023692BB34FF000080FE0202384F85F
:101E30004130032032E038F8023B2268C3F3080344
:101E40005360E28C92B2013A92B2E284E38C9BB28C
:101E500093B100963B46002280212046FFF748FFC1
:101E60000028E3D1002DE6D015F8012B23685A6035
:101E7000E7E7A8460025E9E700963B460022402117
:101E80002046FFF735FF18B9202384F8413005E0DC
:101E9000202384F84130032000E0022002B0BDE896
:101EA000F0810120FAE70000034AD2F8883043F4B9
:101EB0007003C2F88830704700ED00E010B50346AB
:101EC0000C4A0D490D48006840B10C4800680344B5
:101ED000521A934206D8094A136010BD0748084CAD
:101EE0000460F2E700F038F80C2303604FF0FF3095
:101EF000F3E700BF000002200004000034010020CE
:101F000048010020DFF834D0FFF7CEFF0C480D4920
:101F10000D4A002302E0D458C4500433C4188C4244
:101F2000F9D30A4A0A4C002301E013600432A242AA
:101F3000FBD300F017F8FEF72BFC704700000220DF
:101F400000000020700000204829000870000020D8
:101F500048010020FEE70000014B1868704700BFF1
:101F60000C00002070B50D4D0D4C641BA410002614
:101F7000A64209D10B4D0C4C00F0A2FC641BA4102E
:101F80000026A64205D170BD55F8043B984701369E
:101F9000EEE755F8043B98470136F2E74029000880
:101FA000402900084029000844290008024403464B
:101FB000934200D1704703F8011BF9E70CB430B528
:101FC000174B0C1E1D689DB008DA8B232B604FF059
:101FD000FF301DB0BDE8304002B070474FF40273CF
:101FE000ADF8143014BF04F1FF3323460493079374
:101FF0004FF6FF7302900690ADF81630209A21AB91
:1020000002A92846019300F069F8431CBCBF8B234A
:102010002B60002CDDD0029B00221A70D9E700BF94
:102020000C0000202DE9F0478E689E4282460C4647
:1020300090461F4638D88A8912F4906F32D02568AE
:102040000969A5EB0109656905EB450505EBD57542
:1020500001334B446D109D4238BF1D46530531D5A9
:10206000294600F063FB064650B90C23CAF800303D
:10207000A38943F04003A3814FF0FF30BDE8F08710
:1020800021694A4600F0BEFAA38923F4906343F025
:102090008003A381266165614E44A5EB0905266096
:1020A000A5603E46BE4200D93E46206832464146C3
:1020B00000F0B6FAA3689B1BA36023683344236037
:1020C0000020DBE72A4600F0A5FB06460028E1D108
:1020D0002169504600F0BEFAC7E700002DE9F04F35
:1020E00098468B891B069DB007460D4614460ED5B3
:1020F0000B6963B9402100F019FB2860286120B901
:102100000C233B604FF0FF30D1E040236B61002394
:10211000099320238DF82930CDF80C803023DFF887
:10212000A8818DF82A304FF0010923469A4613F80A
:10213000012B0AB1252AF9D1BAEB040B0BD05B466F
:10214000224629463846FFF76DFF013000F0AA808D
:10215000099A5A4409929AF80030002B00F0A280A4
:1021600000234FF0FF32CDE905230AF1010A049361
:1021700007938DF853301A935446052214F8011B27
:102180005148FEF735F8049AD8B9D00644BF202349
:102190008DF85330110744BF2B238DF853309AF834
:1021A00000302A2B15D0079A544600204FF00A0C15
:1021B000214611F8013B303B092B4ED9B0B10792B3
:1021C00014E0A0EB080309FA03F313430493A246B7
:1021D000D2E7039B191D1B680391002BBBBF5B4219
:1021E00042F0020207930793B8BF049223782E2B84
:1021F0000CD163782A2B35D1039B1A1D1B680392DF
:10220000002BB8BF4FF0FF3302340593DFF8C8A0AE
:10221000217803225046FDF7EBFF40B14023A0EBAD
:102220000A0003FA00F0049B03430134049314F8FA
:10223000011B26488DF828100622FDF7D9FF00283B
:1022400038D0234B1BBB039B073323F00703083312
:102250000393099B3344099367E70CFB02320C4656
:102260000120A5E700230134059319464FF00A0C1D
:10227000204610F8012B303A092A03D9002BC5D08B
:102280000591C3E70CFB012104460123F0E703ABF2
:1022900000932A460F4B04A93846AFF30080421C36
:1022A0000646D6D1AB895B063FF52CAF09981DB029
:1022B000BDE8F08F03AB00932A46064B04A93846CD
:1022C00000F07AF8EBE700BF042900080E290008A7
:1022D00000000000252000080A2900082DE9F04729
:1022E000164699468A680B69DDF820809342B8BF8C
:1022F0001346336091F8432007460C460AB1013378
:1023000033602368990642BF33680233336025681F
:1023100015F0060506D104F1190AE36832689B1A24
:10232000AB4226DC94F84320131E226818BF012319
:1023300092062BD404F1430249463846C047013087
:102340001ED02368E568326803F00603042B08BF3B
:10235000AD1AA36822690CBF25EAE57500259342F2
:10236000C4BF9B1AED1800261A34B5421AD10020BA
:1023700008E00123524649463846C047013003D1A0
:102380004FF0FF30BDE8F0870135C6E7E1185A1C71
:10239000302081F84300224494F8451082F843101D
:1023A0000233C7E70123224649463846C047013079
:1023B000E6D00136D9E700002DE9FF470F7E0C9DDE
:1023C000782F914680460C469A4601F1430207D881
:1023D000622F0AD8002F00F0D880582F00F0A38079
:1023E00004F1420584F842703AE0A7F16303152B2B
:1023F000F6D801A151F823F0512400086524000803
:10240000E1230008E1230008E1230008E12300089C
:1024100065240008E1230008E1230008E123000807
:10242000E1230008712500089524000853250008C1
:10243000E1230008E123000893250008E1230008B8
:1024400095240008E1230008E12300085B2500082B
:102450002B681A1D1B682A6004F1420584F842307B
:102460000123A3E020682968060601F104030AD5C8
:102470000E682B60002E03DA2D23764284F8433059
:102480005E480A2319E00E682B6010F0400F18BF59
:1024900036B2EFE72B682068191D2960010601D5C7
:1024A0001E6802E04606FBD51E8854486F2F0CBFFD
:1024B00008230A23002184F843106568A560002DD5
:1024C000A2BF216821F0040121600EB9002D4DD07A
:1024D0001546B6FBF3F103FB1167C75D05F8017DF7
:1024E0003746BB420E46F4D9082B0BD12368DE07D2
:1024F00008D5236961689942DEBF302305F8013CA5
:1025000005F1FF35521B2261CDF800A04B4603AA0E
:1025100021464046FFF7E2FE01304CD14FF0FF303C
:1025200004B0BDE8F087354881F845702968236814
:1025300051F8046B29601D0614D5DF0744BF43F032
:10254000200323601EB9236823F020032360102397
:10255000B0E7236843F0200323607823284884F8F9
:102560004530E3E7590648BFB6B2E6E71546BBE794
:102570002B6826686169181D286035061B6801D51F
:10258000196002E07006FBD519800023236115460F
:10259000BAE72B681A1D2A601D6862680021284668
:1025A000FDF726FE08B1401B6060636823610023CD
:1025B00084F84330A8E723692A4649464046D04775
:1025C0000130ABD023689B0713D4E068039B98428B
:1025D000B8BF1846A4E70123324649464046D047D3
:1025E00001309BD00135E36803995B1AAB42F2DC02
:1025F000EBE7002504F11906F5E700BF15290008EF
:10260000262900080A44914200F1FF3300D17047A7
:1026100010B511F8014B03F8014F9142F9D110BDEB
:10262000884210B501EB020402D98442234607D840
:10263000431EA14208D011F8012B03F8012FF8E73F
:10264000024401468A4200D110BD13F8014D02F840
:10265000014DF7E737B5002944D051F8043C01900B
:10266000002BA1F10404B8BFE41800F013F91E4ACE
:102670000198136833B96360146003B0BDE830405B
:1026800000F00EB9A34208D9256861198B4201BF39
:1026900019685B6849192160EDE71A465B680BB160
:1026A000A342FAD911685518A5420BD124682144D8
:1026B0005418A3421160E0D11C685B685360214448
:1026C0001160DAE702D90C230360D6E725686119A7
:1026D0008B4204BF19685B68636004BF49192160BD
:1026E0005460CAE703B030BD3801002070B50E4E0B
:1026F0000C463168054611B900F0BCF8306021463F
:10270000284600F0B7F8431C0AD0C41C24F0030488
:10271000A04207D0211A284600F0ACF8013001D1C0
:102720004FF0FF34204670BD3C0100202DE9F04100
:10273000CD1C25F0030508350C2D38BF0C25002DC8
:10274000074601DBA94205D90C233B600026304631
:10275000BDE8F0812E4E00F09DF833681C4634BB76
:1027600029463846FFF7C2FF431C04464DD1346862
:102770002646002E40D123683146384604EB030834
:1027800000F078F880453AD1216803356D1A25F0BC
:10279000030508350C2D38BF0C2529463846FFF7B0
:1027A000A5FF01302BD023682B4423600EE0226864
:1027B000521B1ED40B2A16D96119A342256018BFDB
:1027C0005960636808BF316062514B60384604F15C
:1027D0000B0600F065F826F00706231DF21AB6D0A6
:1027E0009B1BA350B3E76268A3420CBF32605A60E0
:1027F000ECE723466468B2E734467668B9E70C2311
:102800003B60384600F04CF8A1E72560DEE700BFEA
:10281000380100202DE9F041804614460E4621B9CA
:10282000BDE8F0411146FFF781BF2AB9FFF712FF5B
:1028300025462846BDE8F08100F038F88442074676
:1028400002D8B4EB500F12D821464046FFF76EFF76
:1028500005460028EDD0BC422246314628BF3A4604
:10286000FFF7D0FE31464046FFF7F4FEE1E735467C
:10287000DFE7000038B5064D0023044608462B600C
:10288000FFF71CFB431C02D12B6803B1236038BD4A
:1028900040010020014800F011B800BF44010020B1
:1028A000014800F00CB800BF4401002051F8043C7E
:1028B000181F002BBCBF0B58C018704770477047DB
:1028C000F8B500BFF8BC08BC9E467047F8B500BF1D
:0828D000F8BC08BC9E467047ED
:1028D800416E616C6F672056616C75653A2025758D
:1028E8000D0A0000000000000000000001020304BF
:1028F800060708090000000001020304232D302BFD
:102908002000686C4C0065666745464700303132E8
:10291800333435363738394142434445460030313F
:10292800323334353637383961626364656600009E
:0829380088D9FF7F01000000B7
:04294000C5010008C5
:04294400A1010008E5
:1029480001000000100000000024F4001000002026
:10295800000000000000000000000000000000006F
:10296800000000000000000000000000000000005F
:10297800000000000000000000000000000000004F
:10298800000000000000000000000000000000003F
:10299800000000000000000000000000000000002F
:1029A800000000000000000000000000000000001F
:0400000508001F05CB
:00000001FF
